:100000000C947A010C94A2010C94A2010C94A2010C
:100010000C94A2010C94A2010C947D180C94A201E2
:100020000C94A2010C94A2010C94A2010C94A201C4
:100030000C94A2010C94A2010C94A2010C94A201B4
:100040000C94650C0C94A2010C94330C0C940D0CC4
:100050000C94A2010C94A2010C94A2010C94A20194
:100060000C94A2010C94A2015B494E464F5D2066A0
:10007000726565206D656D6F72793A2025640D009B
:100080005B4552524F525D2043616E27742063726C
:1000900065617465206D75746578200D005B494E4F
:1000A000464F5D204D757465782063726561746597
:1000B00064200D005B494E464F5D205175657565A6
:1000C00020637265617465640D005B4552524F5246
:1000D0005D2043616E2774206372656174652071D1
:1000E00075657565200D005B494E464F5D20437276
:1000F000656174696E6720717565756520776974CF
:10010000682073697A65206F662025640D005B495D
:100110004E464F5D205461736B2073636865647550
:100120006C652073746172746564200A005B494ECB
:10013000464F5D2074656D70202564207C206875B5
:100140006D69646974792025640D005B4552524FD6
:10015000525D205265616420646874323220657299
:10016000726F723A202564200D005B494E464F5D48
:100170002044485420646174612073656E740D00DE
:100180005B494E464F5D206372656174656420254E
:1001900073207461736B200D005B4552524F525DAA
:1001A00020437265617465207461736B20756E6B9A
:1001B0006E6F776E206572726F72200D005B455214
:1001C000524F525D2043616E2774206372656174E3
:1001D00065205461736B2C206D656D6F72792061A1
:1001E0006C6C6F636174696F6E206572726F7220E0
:1001F0000D0074656D70202564207C2068756D6924
:10020000646974792025640D005B494E46305D2099
:1002100072656365697665643A200D005B494E46F8
:100220004F5D204C4344205441534B005B494E46A4
:100230004F5D204C4452207C207261773A20256427
:10024000207C206C75783A202564200D005B494E97
:10025000464F5D204C445220646174612073656E8A
:10026000740D005B494E464F5D2053697A65206FDF
:10027000662071756575652025640D005B494E46E5
:100280004F5D20547279696E6720746F2073656EBC
:100290006420646174610D000000000024002700E8
:1002A0002A0000000000250028002B0000000000AC
:1002B00023002600290004040404040404040202A8
:1002C00002020202030303030303010204081020D5
:1002D00040800102040810200102040810200000E0
:1002E00000080002010000030407000000000000F5
:1002F0000000801811241FBECFEFD8E0DEBFCDBFB5
:1003000011E0A0E0B1E0E0EAF0E402C005900D9257
:10031000AE36B107D9F722E0AEE6B1E001C01D92DA
:10032000A43CB207E1F711E0CAE7D1E004C021978D
:10033000FE010E94CA1CC937D107C9F70E94CA181A
:100340000C944E200C940000AF92BF92CF92DF929B
:10035000EF92FF920F931F93CF93DF936C017B017A
:100360008B01040F151FEB015E01AE18BF08C0170B
:10037000D10759F06991D601ED91FC910190F0817E
:10038000E02DC6010995892B79F7C501DF91CF9141
:100390001F910F91FF90EF90DF90CF90BF90AF90A3
:1003A0000895FC01538D448D252F30E0842F90E07B
:1003B000821B930B541710F0CF9608950197089560
:1003C000FC01918D828D981761F0A28DAE0FBF2F29
:1003D000B11D5D968C91928D9F5F9F73928F90E07F
:1003E00008958FEF9FEF0895FC01918D828D9817EE
:1003F00031F0828DE80FF11D858D90E008958FEF2B
:100400009FEF0895FC01918D228D892F90E0805CF3
:100410009F4F821B91098F73992708958BE092E07B
:100420000E94020221E0892B09F420E0822F089526
:100430000E940E0281110C940000089580E090E06B
:10044000892B11F00C9418020895FC01A48DA80FBB
:10045000B92FB11DA35ABF4F2C91848D90E0019606
:100460008F739927848FA689B7892C93A089B18926
:100470008C91837080648C93938D848D981306C0C7
:100480000288F389E02D80818F7D80830895EF922B
:10049000FF920F931F93CF93DF93EC0181E0888F3E
:1004A0009B8D8C8D98131AC0E889F989808185FF0E
:1004B00015C09FB7F894EE89FF896083E889F989B0
:1004C00080818370806480839FBF81E090E0DF91B2
:1004D000CF911F910F91FF90EF900895F62E0B8D05
:1004E00010E00F5F1F4F0F731127E02E8C8D8E11C0
:1004F0000CC00FB607FCFACFE889F989808185FF27
:10050000F5CFCE010E942502F1CFEB8DEC0FFD2F30
:10051000F11DE35AFF4FF0829FB7F8940B8FEA89E1
:10052000FB8980818062CFCFCF93DF93EC01888DF0
:100530008823B9F0AA89BB89E889F9898C9185FD5E
:1005400003C0808186FD0DC00FB607FCF7CF8C91EC
:1005500085FFF2CF808185FFEDCFCE010E9425027D
:10056000E9CFDF91CF910895833081F028F4813075
:1005700099F08230A9F008958730A9F08830C9F049
:100580008430B1F4809180008F7D03C08091800021
:100590008F7780938000089584B58F7784BD089508
:1005A00084B58F7DFBCF8091B0008F778093B000B2
:1005B00008958091B0008F7DF9CFCF93DF93E4EE63
:1005C000F2E08491E0EDF2E0D491ECEBF2E0C49142
:1005D000CC23A1F081110E94B402EC2FF0E0EE0FC9
:1005E000FF1FE455FD4FA591B491EC91ED2381E0FF
:1005F00090E009F480E0DF91CF91089580E090E0F1
:10060000FACF1F93CF93DF93282F30E0F901E25206
:10061000FD4F8491F901E653FD4FD491F901EA545D
:10062000FD4FC491CC23A9F0162F81110E94B40272
:10063000EC2FF0E0EE0FFF1FEE55FD4FA591B491AA
:100640008FB7F894EC91111108C0D095DE23DC939C
:100650008FBFDF91CF911F910895DE2BF8CFCF93FD
:10066000DF9390E0FC01E653FD4F24918A549D4FA7
:10067000FC0184918823D1F090E0880F991FFC0140
:10068000E856FD4FA591B491FC01EE55FD4FC59183
:10069000D49161110EC09FB7F8948C91E22FE09530
:1006A0008E238C932881E223E8839FBFDF91CF9133
:1006B00008958FB7F894EC91E22BEC938FBFF6CFAF
:1006C0003FB7F8948091A9019091AA01A091AB0144
:1006D000B091AC0126B5A89B05C02F3F19F001963B
:1006E000A11DB11D3FBFBA2FA92F982F8827BC018C
:1006F000CD01620F711D811D911D42E0660F771FB4
:10070000881F991F4A95D1F708958F929F92AF92B3
:10071000BF92CF92DF92EF92FF924B015C010E9459
:1007200060036B017C010E9460036C197D098E09D6
:100730009F09683E734081059105A8F321E0821A64
:100740009108A108B10888EEC80E83E0D81EE11C0C
:10075000F11C81149104A104B10429F7FF90EF90DA
:10076000DF90CF90BF90AF909F908F9008950895A5
:1007700090E080E008951D9A0895259A2D9A089595
:10078000E091B101F091B2018081811107C08FEF3A
:100790009FEF90939D0180939C010895E091B1019A
:1007A000F091B2010580F681E02D0680F781E02D01
:1007B00082819381EECFEF92FF920F931F93CF939D
:1007C000DF93CDB7DEB7C058D1090FB6F894DEBFBE
:1007D0000FBECDBF40E850E0C557DF4F688179813B
:1007E000CB58D0408E010F5F1F4FC8010E944B1A9B
:1007F000C158DF4F1882CF57D040F8010190002038
:10080000E9F77F01F80101900020E9F7B8016E1BBC
:100810007F0B60587F4F9E0123573F4FA801C701B0
:100820000E94A41DC058DF4F1882C058D040F70165
:1008300001900020E9F73197AF014E195F09B70128
:100840008BE092E00E94A401C058DF4F0FB6F894ED
:10085000DEBF0FBECDBFDF91CF911F910F91FF90F3
:10086000EF900895CF93DF93EC0160E08E810E94BA
:10087000010361E08E810E94010360E08E810E948D
:1008800001038BE891E00197F1F7DF91CF91089593
:10089000CF92DF92EF92FF920F931F93CF93DF934C
:1008A0006C017C0187E0E80EF11CD0E0C0E0062F6F
:1008B00010E0B8010C2E02C0759567950A94E2F716
:1008C0006170F70181917F010E9401032196C4307C
:1008D000D10579F7C601DF91CF911F910F91FF905C
:1008E000EF90DF90CF900C943204CF92DF92EF9292
:1008F000FF920F931F93CF93DF93EC01F62E642F9B
:100900008C810E9401038D818F3F19F060E00E946D
:1009100001030F2D10E08F8584FF25C06E0187E055
:10092000C80ED11CF12CE12CB8010E2C02C075951B
:1009300067950A94E2F76170F60181916F010E9458
:100940000103FFEFEF1AFF0A88E0E816F10461F7F0
:10095000CE01DF91CF911F910F91FF90EF90DF902B
:10096000CF900C943204B80184E0759567958A9510
:10097000E1F7CE010E9448046F2DCE01DF91CF91A7
:100980001F910F91FF90EF90DF90CF900C9448044F
:10099000CF93DF93813029F09091B70298609093C4
:1009A000B7028093BB021092BC0280E48093BD0228
:1009B00080E18093BE0280E58093BF0261E0809178
:1009C000AC020E942F038091AD028F3F19F061E0CD
:1009D0000E942F0361E08091AE020E942F03C8EABB
:1009E000D2E09E01285A32408091B70284FD0BC0AC
:1009F00084E090E021962817390744F461E08E8165
:100A00000E942F03EECF88E090E0F4CF8BE39DE0CF
:100A10000197F1F760E08091AC020E94010360E071
:100A20008091AE020E9401038091AD028F3F19F0C8
:100A300060E00E9401036091B70264FD45C063E07D
:100A400088EA92E00E944804CBE4D6E4CE01019704
:100A5000F1F763E088EA92E00E9448042197F1F7F9
:100A600063E088EA92E00E94480483E592E00197FF
:100A7000F1F762E088EA92E00E9448046091B702D0
:100A8000606240E088EA92E00E94750484E080930E
:100A9000B80240E06CE088EA92E00E94750440E011
:100AA00061E088EA92E00E9475048BE39FE1019780
:100AB000F1F782E08093B90240E066E088EA92E0D4
:100AC000DF91CF910C947504606240E088EA92E077
:100AD0000E9475048BE496E40197F1F76091B702E8
:100AE000606240E088EA92E00E94750483E592E04B
:100AF0000197F1F76091B702606240E088EA92E006
:100B00000E947504BBCF41E00E94750481E090E033
:100B10000895EF92FF920F931F93CF93DF93EC0111
:100B20007B018A0188819981009729F02A813B8184
:100B30002417350788F4B8016F5F7F4F0E94D01CDF
:100B4000009791F0998388831B830A832C813D81D0
:100B5000232B11F4FC0110821D830C83B7018881C3
:100B600099810E949D1D0CC088819981009711F088
:100B70000E94C219198218821D821C821B821A824D
:100B8000CE01DF91CF911F910F91FF90EF900895CB
:100B9000FC01118210821382128215821482FB01E1
:100BA00001900020E9F73197AF01461B570B0C94D9
:100BB00089050F931F93CF93DF9300D000D000D00F
:100BC000CDB7DEB76130A9F51A8219821C821B826B
:100BD0001E821D82FC01608171818E010F5F1F4F9B
:100BE0006115710529F044815581C8010E9489056C
:100BF0001F930F9380E891E09F938F938BE092E097
:100C00009F938F930E94DB0389819A810E94C2196E
:100C10000F900F900F900F900F900F9026960FB699
:100C2000F894DEBF0FBECDBFDF91CF911F910F9122
:100C300008958DEB91E06F3F11F089E991E09F936A
:100C40008F938BE092E09F938F930E94DB030F9032
:100C50000F900F900F90E2CFF8940E94BD032FEFFA
:100C600081EE94E0215080409040E1F700C0000008
:100C70000E94BB032FEF87EA91E62150804090400D
:100C8000E1F700C000000E94BB032FEF81EE94E06B
:100C9000215080409040E1F700C000000E94BB035B
:100CA0002FEF81EE94E0215080409040E1F700C0AA
:100CB00000000E94BB03D3CF00E010E080919A01B6
:100CC00081110CC08091E601823010F00E940B115E
:100CD0000115110599F30E941802F0CF0FB6F89490
:100CE0000F92E091C101F091C201C681D781CE017E
:100CF00002960E94F80C8091E20181508093E201FB
:100D000080919A01815080939A010F900FBE8F8934
:100D1000988D0E94B014CE010E94B014CFCF7F9264
:100D20008F929F92AF92BF92CF92DF92EF92FF92FB
:100D30000F931F93CF93DF9300D000D000D01F926A
:100D4000CDB7DEB79F838E838CE792E09F938F931E
:100D50008BE092E09F938F930E94DB0300917F01D1
:100D6000109180018FEF9FEF9D838C830F900F90E8
:100D70000F900F900115110511F40E942C06D80157
:100D80005C968C918111F9CF0E94AF0C811104C047
:100D90008C819D81892B89F7D12C90E05801B1E19C
:100DA000AB0EB11C89E0782E24E0822E912CA2C0DB
:100DB0002C813D81232B21F4DD2009F4CAC0DDCF35
:100DC000911109C08091E50189838091E30190919F
:100DD000E4019B838A830F900FBE0E94C70C0FB65D
:100DE000F8940F92D8015D968C915D978F3F11F426
:100DF0005D961C92F801868D8F3F09F4168E0F9038
:100E00000FBEBE016C5F7F4FCE0101960E94190E8E
:100E10008111F9C0C8010E94CD0C882309F4EDC0EE
:100E2000D8018D919C91892B09F055C00FB6F8948B
:100E30000F92F801E480F580E114F10409F4DBC0BD
:100E4000D70156968C915697E0916E01F0916F0103
:100E50009689891708F0C3C01C962D913C911D9767
:100E600037FD0CC0E0916E01F0916F0196899401FD
:100E7000291B31091D963C932E931C97879DC00119
:100E800011248A519E4FF70122853385281739078F
:100E900009F09DC06701F2E0CF0ED11CC6010E948F
:100EA000F80CE0916E01F0916F018689D70156969A
:100EB0008C9390910A02981710F480930A02879DF0
:100EC000C0011124B6018A519E4F0E94D80CDD2426
:100ED000D3940F900FBE6C817D81C5010E94D10E0D
:100EE000C8010E948F0E0E94F411811102C00E945D
:100EF0000B1191E00FB6F8940F92F801828D8823C0
:100F000009F456CF8150828F80819181892BB1F471
:100F100080916E0190916F01892B39F0E0916E0103
:100F2000F0916F0182A18F5F82A380916E019091F9
:100F30006F01D80115969C938E931497F8018085C4
:100F4000882339F0C80108960E944C0E81110E9436
:100F50000B110F900FBE4FEF5FEFBE016A5F7F4F27
:100F600080917D0190917E010E94271350E040E026
:100F700070E060E080917F01909180010E942713D2
:100F80001F9282E08F9383E692E09F938F938BE092
:100F900092E09F938F930E94DB030F900F900F902E
:100FA0000F900F900F9027960FB6F894DEBF0FBEEC
:100FB000CDBFDF91CF911F910F91FF90EF90DF9008
:100FC000CF90BF90AF909F908F907F900895E091C9
:100FD0006E01F0916F018689F701868B78CFE091E1
:100FE0006E01F0916F01DD24D39491969C918689D6
:100FF000981708F46ECFD12C6CCFC8010E948F0EC9
:101000000E94F41176CFC8010E948F0E0E94F41145
:10101000C8010E94CD0C882309F46BCFDD2009F4B0
:101020009ACF0FB6F8940F92F8018189882309F4BA
:1010300061C00688F789E02D908184E0891BD80182
:1010400014960D911C910115110509F482CFF80138
:1010500022A1222309F491CE91A1981708F4982F88
:10106000D80156968C915697981709F472CF213073
:1010700009F06FCF20916E0130916F0102171307B5
:1010800009F47BCE56969C9356971C962D913C91D5
:101090001D9737FD08C024E030E0291B31091D965B
:1010A0003C932E931C97B9E08B9FC00111248A5169
:1010B0009E4FF801228533852817390709F049CF5B
:1010C0007801F2E0EF0EF11CC7010E94F80CD80184
:1010D00056968C9190910A02981710F480930A0208
:1010E000B9E08B9FC0011124B7018A519E4F0E9425
:1010F000D80C2FCF80E0A3CFCF93DF93CDB7DEB74F
:101100002B970FB6F894DEBF0FBECDBF8CE2A82E92
:1011100082E0B82E9BE0E92E92E0F92E8824839499
:10112000912C3DE4C32E32E0D32E80E480937C00EA
:1011300080917A00806480937A0080917A0086FDA5
:10114000FCCF8091780060917900762F682F072E70
:10115000000C880B990B0E94611A562E472E382ED0
:10116000292E20E030E0A901D201F1016B2F7A2F66
:101170008F2F9E2F0E945A1A882309F446C020E020
:1011800030E040EA5BE3D201F1016B2F7A2F8F2F21
:101190009E2F0E94C01A9B01AC0160E070E08AE7BC
:1011A00093E40E94221C20E030E048E452E40E94D4
:1011B000B51B3B018C011F930F937F926F922F926F
:1011C0003F924F925F92BF92AF92FF92EF920E9436
:1011D000DB039A828982862D972DA02FB12F8B83D6
:1011E0009C83AD83BE83CE0101960E948F06DF9261
:1011F000CF92FF92EF920E94DB030E940B110FB679
:10120000F894DEBF0FBECDBF90CF612C712C00E0F3
:1012100010E0D1CFCF93DF93CDB7DEB72B970FB6CA
:10122000F894DEBF0FBECDBF8CE1E82E82E0F82E31
:101230000BE012E099E0C92E92E0D92E22EFA22E07
:1012400021E0B22EFF92EF921F930F930E94DB03D7
:101250004FEF5FEFBE016F5F7F4F80917D019091F7
:101260007E010E94C1140F900F900F900F9081305B
:1012700009F5DF92CF921F930F930E94DB038B85BA
:101280008F938A858F9389858F9388858F938F819C
:101290008F938E818F938D818F938C818F93BF924B
:1012A000AF921F930F930E94DB030FB6F894DEBF3B
:1012B0000FBECDBF0E940B11C5CFCF93DF93CDB72B
:1012C000DEB72F970FB6F894DEBF0FBECDBF3BE061
:1012D000A32E32E0B32E1092780110927901109271
:1012E0007A0110927B0110927C0161E086E00E94FD
:1012F0002F0360E086E00E94010364E170E080E07B
:1013000090E00E94850361E086E00E9401038BE982
:1013100090E00197F1F760E086E00E942F0301E181
:1013200017E20E94DD02892BB9F401501109C9F7B7
:101330008EEF9FEF9F938F938BE491E09F938F931A
:10134000BF92AF920E94DB030F900F900F900F900F
:101350000F900F9080E0D1C001E117E20E94DD0202
:10136000019721F401501109C9F7E2CF28E2E22EDA
:10137000F12C17E000E091E1C92E97E2D92E0E94EE
:10138000DD02892B29F421E0C21AD108C1F7D0CFA0
:101390000E9460032B013C0181E1C82E87E2D82E18
:1013A0000E94DD02019729F481E0C81AD108C1F733
:1013B000BFCF0E94600364197509860997096932D5
:1013C00071058105910570F0E02FF0E0E059FE4FC6
:1013D000808521E030E0012E01C0220F0A94EAF757
:1013E000822B80871111ADC00F5F17E091E0E91AE1
:1013F000F10809F0C0CF1091790100917801609156
:1014000078017091790176276727762790E080E050
:101410000E945F1A2DEC3CEC4CEC5DE30E94C01A7C
:101420006B017C01C0927001D0927101E092720157
:10143000F092730180917A0121E030E087FF05C0CE
:101440008F7780937A012FEF3FEF60907B01709050
:101450007A0180917A0190917B01982789279827BA
:10146000829FB001839F700D929F700D112490E0B8
:1014700080E00E945F1A2DEC3CEC4CEC5DE30E9496
:10148000C01A6093740170937501809376019093F4
:101490007701100F610E760C20917C01721253C0FF
:1014A0000E94941C6C877D871C01C701B6010E94B5
:1014B000941C6E877F87982E892E9F938F932F85FC
:1014C0002F938E858F933F922F929D859F932C858E
:1014D0002F938DE291E09F938F93BF92AF920E94E2
:1014E000DB0364E670E080E090E00E9485030FB6C5
:1014F000F894DEBF0FBECDBF81E01A8219828B83C4
:101500009C859C832D852D832E823F829E85988786
:101510002F8529879A868B86882381F0CE010196B4
:101520000E948F068AE691E09F938F93BF92AF92BD
:101530000E94DB030F900F900F900F900E940B11F1
:10154000CACE115053CF8FEFF4CECF92DF92EF92ED
:10155000FF920F931F93CF93DF9300D000D000D062
:10156000CDB7DEB7E0911B02F0911C0282E08083D0
:10157000E0911702F09118021082E0911902F091A7
:101580001A028FEC808310922302E0911F02F091E7
:10159000200286E08083E0911D02F0911E0280818E
:1015A00080618083E0911D02F0911E02808188603D
:1015B0008083E0911D02F0911E028081806880830B
:1015C000E0911D02F0911E0280818F7D80838091C9
:1015D000C0029091C1029E012F5F3F4F7901009799
:1015E00009F005C1C901845C92409A83898389818D
:1015F0009A819F938F9388E690E09F938F938BE0DF
:1016000092E09F938F930E94DB0384E00E94C804C2
:1016100040E150E061E371E088EA92E00E94A401B9
:101620008FE190E00E94AA168C010F900F900F900E
:101630000F900F900F900097B1F0FC019183808381
:1016400081E0838F148EC8010E94E50DF801158298
:10165000148211821082168250E040E070E060E057
:10166000C8010E9427131093800100937F0180E836
:1016700090E0012B11F08DE990E09F938F938BE028
:1016800092E09F938F930E94DB030F900F900F9037
:101690000F901F929BE0D92EDF9287EE90E09F93F0
:1016A0008F938BE092E09F938F930E94DB038BE4F8
:1016B00090E00E94AA168C010F900F900F900F904F
:1016C0000F900F90009751F04F96F801918380830F
:1016D00084E0838FD48EC8010E94E50D10937E01B3
:1016E00000937D01012B71F48AEC90E09F938F931E
:1016F0008BE092E09F938F930E94DB030F900F90FB
:101700000F900F9084EB90E09F938F938BE0C82E07
:1017100082E0D82EDF92CF920E94DB0310E000E03F
:1017200021E040E850E062E471E08AE099E00E9444
:10173000C916182F6BE471E0C7010E94C805612F1C
:10174000C7010E94D90589819A810E94C21910E0BF
:1017500000E023E040E850E06FE471E08DE599E0BF
:101760000E94C916182F6AE571E0C7010E94C805DA
:10177000612FC7010E94D90589819A810E94C219EF
:1017800010E000E023E040E850E060E671E08CE724
:1017900098E00E94C916182F69E671E0C7010E94FF
:1017A000C805612FC7010E94D90589819A810E94CD
:1017B000C2190E94D4178EE091E09F938F93DF921D
:1017C000CF920E94DB030FB6F894DEBF0FBECDBFF1
:1017D00026960FB6F894DEBF0FBECDBFDF91CF9136
:1017E0001F910F91FF90EF90DF90CF900895281BED
:1017F000390BE091C202F091C30290E080E0309793
:1018000049F0029640815181840F951F0280F38137
:10181000E02DF5CF820F931FE8CE1F920F920FB6E7
:101820000F9211242F933F934F935F936F937F9366
:101830008F939F93AF93BF93EF93FF938BE092E0CF
:101840000E942502FF91EF91BF91AF919F918F91DF
:101850007F916F915F914F913F912F910F900FBEAC
:101860000F901F9018951F920F920FB60F92112490
:101870002F938F939F93EF93FF93E0911B02F0912F
:101880001C028081E0912102F091220282FD1BC0A6
:101890009081809124028F5F8F732091250282179F
:1018A00041F0E0912402F0E0E55FFD4F958F8093D9
:1018B0002402FF91EF919F918F912F910F900FBE76
:1018C0000F901F9018958081F4CF1F920F920FB642
:1018D0000F9211242F933F938F939F93AF93BF93B6
:1018E0008091A5019091A601A091A701B091A801B6
:1018F0003091A40123E0230F2D3758F50196A11D47
:10190000B11D2093A4018093A5019093A601A093FB
:10191000A701B093A8018091A9019091AA01A0917B
:10192000AB01B091AC010196A11DB11D8093A9013D
:101930009093AA01A093AB01B093AC01BF91AF917A
:101940009F918F913F912F910F900FBE0F901F90FD
:10195000189526E8230F0296A11DB11DD2CF8091C4
:10196000E101882331F080919B01882321F080E000
:10197000089581E0089582E008950FB6F8940F92DB
:101980008091E3019091E4010F900FBE0895809142
:101990009B018F5F80939B0108950FB6F8940F927F
:1019A000FC01928D0F900FBE81E0911180E00895AF
:1019B000CF93DF939C01FB01DC011196CD91DC916B
:1019C000D383C2838C819D81958384838C819D8107
:1019D000DC0113967C936E9312977D836C83318721
:1019E0002087F90180818F5F8083DF91CF910895F7
:1019F000CF93DF93FC01A085B185828193812481FF
:101A00003581EC013D832C83C481D5819B838A83FE
:101A100011968D919C9112978E179F0721F4129623
:101A2000DC93CE931197118610868C9181508C9304
:101A30008C91DF91CF9108950F931F93CF93DF93F4
:101A40008C01FB0180819181D80113968F3F98070B
:101A5000F1F4E801AF81B88512968D919C911397AE
:101A600093838283EC01FD83EC83B583A483139677
:101A7000FC93EE93129711870087F80180818F5FA6
:101A80008083DF91CF911F910F910895D901129614
:101A90002D913C911397E90148815981841795074D
:101AA000A8F7DACFFC01738362839187808746179A
:101AB000570790F0421B530B8485958548175907AB
:101AC000C8F4BF016E5F7F4F8091A0019091A1018A
:101AD0000E941C0D80E008954217530718F4621706
:101AE000730740F4BF016E5F7F4F8091A201909118
:101AF000A301EECF81E00895FF920F931F93CF9340
:101B0000DF93EC01F62E0091E3011091E401809146
:101B10006E0190916F0102960E94F80CCF3FDC0796
:101B200089F4FF2079F060916E0170916F016E5F12
:101B30007F4F83EB91E0DF91CF911F910F91FF9049
:101B40000C94D80CC00FD11FE0916E01F0916F0181
:101B5000D383C28360916E0170916F01C017D1076A
:101B600068F48091AF019091B0016E5F7F4FDF917B
:101B7000CF911F910F91FF900C941C0D8091B1019A
:101B80009091B2016E5F7F4F0E941C0D80919C016D
:101B900090919D01C817D90720F4D0939D01C0935F
:101BA0009C01DF91CF911F910F91FF900895FC014F
:101BB0000396928381832FEF3FEF348323839683B1
:101BC00085839087878310820895CF93DF93EC01FC
:101BD000892B11F40E942C060FB6F8940F9288817D
:101BE00099812B8D4C8DBC01249F600D711D11249A
:101BF0007D836C831A8E9B838A832150330B429F93
:101C0000B001439F700D1124860F971F9F838E8311
:101C10008FEF8D8F8E8FCE0108960E94D70DCE014B
:101C200041960E94D70D0F900FBE81E0DF91CF91BA
:101C30000895FC01DB010FB6F8940F924091E30187
:101C40005091E4012D913C9111972F3F3207E1F023
:101C5000818192816091E5017081761719F04817B2
:101C60005907C0F4481B590B4217530788F4241B2B
:101C7000350B2D933C938091E50180838091E301A6
:101C80009091E4019283818380E00F900FBE0895CC
:101C90001D921C9281E0F9CF0F931F93CF93DF9396
:101CA000DC011596ED91FC91C681D781209711F446
:101CB0000E942C068E01045F1F4FC8010E94F80C81
:101CC00080919B01811125C00A501109C8010E9411
:101CD000F80C8E8990910A02981710F480930A02EA
:101CE000B9E08B9FC0011124B8018A519E4F0E9418
:101CF000D80CE0916E01F0916F019E898689891759
:101D000060F481E080939901DF91CF911F910F9151
:101D10000895B80185EC91E0EACF80E0F5CFEF922D
:101D2000FF920F931F93CF93DF93EC010FB6F894BC
:101D30000F921E8D7C0181E1E80EF11C01E011166D
:101D4000D4F08FEF8E8F0F900FBE0FB6F8940F92D6
:101D50001D8D7E0188E0E80EF11C01E01116B4F043
:101D60008FEF8D8F0F900FBEDF91CF911F910F914D
:101D7000FF90EF9008958989882319F3C7010E9485
:101D80004C0E8111009399011150D9CF8885882379
:101D900039F3C7010E944C0E811100939901115033
:101DA000DDCFCF93DF93EB01009711F40E942C0657
:101DB00060916E0170916F01645F7F4F0E941C0DF6
:101DC00061E0CE01DF91CF910C947C0D0F920FB6A4
:101DD000F8940F921F9211242F923F924F925F928C
:101DE0006F927F928F929F92AF92BF92CF92DF922B
:101DF000EF92FF920F931F932F933F934F935F9315
:101E00006F937F938F939F93AF93BF93CF93DF9302
:101E1000EF93FF93A0916E01B0916F010DB60D92FB
:101E20000EB60D9213BE80919B0181112AC1809143
:101E3000E3019091E40101969093E4018093E30122
:101E4000009709F066C0E091B101F091B2012081E4
:101E5000222361F1F894259A2D9A2FEF61EE74E018
:101E6000215060407040E1F700C000001D9A8FEFE4
:101E700097EAA1E681509040A040E1F700C0000041
:101E80001D9ABFEFC1EED4E0B150C040D040E1F7A1
:101E900000C000001D9A2FEF61EE74E021506040F9
:101EA0007040E1F700C000001D9AD7CF2091B1012A
:101EB0003091B2014091AF015091B0015093B20105
:101EC0004093B1013093B0012093AF012091E5011F
:101ED0002F5F2093E501E091B101F091B2012081E3
:101EE000211107C02FEF3FEF30939D0120939C01FC
:101EF00010C0E091B101F091B2010580F681E02DB2
:101F00000680F781E02D2281338130939D0120935B
:101F10009C0120919C0130919D018217930710F440
:101F200020E09BC020E019E0E091B101F091B20106
:101F30003081311107C08FEF9FEF90939D01809307
:101F40009C018BC0E091B101F091B2010580F68156
:101F5000E02D0680F781E02D42815381841795079B
:101F600028F450939D0140939C0177C0AF014E5FD0
:101F70005F4FA285B38564817581E680F780EB01B0
:101F8000FD82EC82C681D7817B836A8311966D9135
:101F90007C9112974617570721F41296DC93CE9343
:101FA0001197138612863C9131503C933C91A48941
:101FB000B5891097F9F066857785E088F188EB019F
:101FC000FD82EC82C089D1897B836A831196ED9072
:101FD000FC901297BF01645F7F4FE616F70621F46D
:101FE0001296DC93CE931197158A148A3C91315046
:101FF0003C933C91A68930910A023A1710F4A093C1
:102000000A021A9FD0011124BD016A517E4F7B0143
:10201000DB011196CD91DC91D583C4836C817D81E8
:10202000778366836C817D81DB0113965C934E938D
:1020300012975D834C83F386E286E70138813F5F28
:102040003883A0916E01B0916F01468956963C91FC
:10205000431708F469CF21E067CFE0916E01F0915A
:102060006F01E689D9E0ED9FF0011124EA51FE4F9E
:102070008081823008F021E08091990181110EC0A9
:102080000AC08091970190919801019690939801D0
:102090008093970195C0222309F492C080919B01FF
:1020A000882321F081E0809399018AC010929901E0
:1020B000A0916E01B0916F01E0916E01F0916F01FE
:1020C0002D913C918789908D82179307A8F080917C
:1020D0006E0190916F0180916E0190916F01259A30
:1020E0002D9A2FEF67EA71E6215060407040E1F7CA
:1020F00000C000001D9AF5CF80910A0290E069E0CF
:102100002EC0019760F5F894259A2D9ABFEFC1EE85
:10211000D4E0B150C040D040E1F700C000001D9AAB
:102120002FEF67EA71E6215060407040E1F700C090
:1021300000001D9A8FEF91EEA4E081509040A040E6
:10214000E1F700C000001D9ABFEFC1EED4E0B1502E
:10215000C040D040E1F700C000001D9AD7CF482F03
:10216000689F9001699F300D1124F901EA51FE4FDB
:102170005081552331F2A181B28112960D90BC910C
:10218000A02DB283A18327513E4FA217B30729F494
:1021900012962D913C913283218329E0289FF001F2
:1021A000299FF00D1124EA51FE4F0180F281E02DAC
:1021B0008681978190936F0180936E0140930A020C
:1021C000A0916E01B0916F01CD91CDBFDD91DEBFC9
:1021D000FF91EF91DF91CF91BF91AF919F918F913F
:1021E0007F916F915F914F913F912F911F910F912F
:1021F000FF90EF90DF90CF90BF90AF909F908F9027
:102200007F906F905F904F903F902F901F900F9016
:102210000FBE0F9008950F920FB6F8940F921F9271
:1022200011242F923F924F925F926F927F928F92E2
:102230009F92AF92BF92CF92DF92EF92FF920F9355
:102240001F932F933F934F935F936F937F938F933E
:102250009F93AF93BF93CF93DF93EF93FF93A0919F
:102260006E01B0916F010DB60D920EB60D92809178
:102270009B01882321F081E0809399018AC010920C
:102280009901A0916E01B0916F01E0916E01F09102
:102290006F012D913C918789908D82179307A8F04B
:1022A00080916E0190916F0180916E0190916F010C
:1022B000259A2D9A2FEF87EA91E621508040904091
:1022C000E1F700C000001D9AF5CF80910A0290E06E
:1022D00069E02EC0019760F5F894259A2D9A8FEF4A
:1022E00091EE24E0815090402040E1F700C00000D2
:1022F0001D9A8FEF97EA21E6815090402040E1F748
:1023000000C000001D9A8FEF91EE24E081509040B4
:102310002040E1F700C000001D9A8FEF91EE24E00D
:10232000815090402040E1F700C000001D9AD7CFB7
:10233000482F689F9001699F300D1124F901EA51DF
:10234000FE4F5081552331F2A181B28112960D903A
:10235000BC91A02DB283A18327513E4FA217B30792
:1023600029F412962D913C913283218329E0289FF4
:10237000F001299FF00D1124EA51FE4F0180F281F6
:10238000E02D8681978190936F0180936E01409339
:102390000A02A0916E01B0916F01CD91CDBFDD9188
:1023A000DEBFFF91EF91DF91CF91BF91AF919F91F0
:1023B0008F917F916F915F914F913F912F911F91DD
:1023C0000F91FF90EF90DF90CF90BF90AF909F90D4
:1023D0008F907F906F905F904F903F902F901F90C5
:1023E0000F900FBE0F9008957F928F929F92AF92A1
:1023F000BF92CF92DF92EF92FF920F931F93CF93F2
:10240000DF9380919B01811102C00E942C060FB6C0
:10241000F8940F9280919B01815080939B01809151
:102420009B01882389F080E00F900FBEDF91CF9150
:102430001F910F91FF90EF90DF90CF90BF90AF90E2
:102440009F908F907F9008958091E201882359F3A7
:10245000D0E0C0E029E0F22EEE24E39429C0E09120
:10246000CA01F091CB01C681D781CE010C960E94A2
:10247000F80C8E010E5F1F4FC8010E94F80C8E8968
:1024800090910A02981710F480930A028F9DC00160
:102490001124B8018A519E4F0E94D80CE0916E0120
:1024A000F0916F019E898689981710F0E09299014A
:1024B0008091C5018111D3CFCD2B11F00E94C003B3
:1024C000E0909701F0909801E114F10409F4B6C08E
:1024D00089E0A82E77247394CC24CA94DC2C8091B4
:1024E0009B01811199C0C091E301D091E401219633
:1024F000D093E401C093E3012097F1F4E091B1019E
:10250000F091B2018081811180CF8091B1019091D1
:10251000B2012091AF013091B0013093B20120930C
:10252000B1019093B0018093AF018091E5018F5F7D
:102530008093E5010E94C00380919C0190919D01D0
:10254000B12CC817D90708F05BC0E0916E01F0917B
:102550006F01E689AE9EF0011124EA51FE4F8081A1
:10256000823010F0BB24B39480919901811103C093
:10257000BB2009F45AC07092990157C0E091B10193
:10258000F091B2010580F681E02D06811781D80116
:1025900012968D919C91C817D90728F490939D01AC
:1025A00080939C01D2CF4801B2E08B0E911CC401F4
:1025B0000E94F80CF80184899589892B21F0C801C3
:1025C0000C960E94F80CD80156968C9190910A02B4
:1025D000981710F480930A028A9DC0011124B40157
:1025E0008A519E4F0E94D80CE0916E01F0916F01CC
:1025F000D80156969C918689981710F0BB24B39405
:10260000E091B101F091B20180818111B7CFD092F8
:102610009D01C0929C0199CF809197019091980162
:1026200001969093980180939701B1E0EB1AF1081D
:1026300009F055CF1092980110929701809199015D
:10264000882309F4F0CE0E940B1181E0EDCEAF9209
:10265000BF92DF92EF92FF920F931F93CF93DF937E
:1026600000D000D01F92CDB7DEB78C017B015D8317
:102670004C83009711F40E942C06672B21F4FC0177
:10268000848D8111F8CF0E94AF0C811104C08C8120
:102690009D81892B81F780E05801F8E0AF0EB11CD5
:1026A000C0C0E480F580E114F10419F580E0F80180
:1026B00015821482D394F801D28E9189992321F046
:1026C000C80141960E944C0E81110E940B110F907F
:1026D0000FBE81E00F900F900F900F900F90DF9141
:1026E000CF911F910F91FF90EF90DF90BF90AF902F
:1026F000089580916E0190916F01E816F90609F036
:10270000BACFF70182A1882309F4B5CF815082A303
:10271000268991A1291751F28111C8CF5701F2E002
:10272000AF0EB11CC5010E94F80CF70181A1868B88
:1027300024E030E0281B31093587248790910A0274
:10274000981710F480930A02F9E08F9FC0011124BA
:10275000B5018A519E4F0E94D80C81E0A8CF50E06D
:10276000B701828193810E948D1DF801848D2281A1
:102770003381820F932F911D93838283248135812E
:102780008217930708F45FC08081918193838283CD
:102790005AC02C813D81232B21F40F900FBE80E085
:1027A00099CF811109C08091E50189838091E3016E
:1027B0009091E4019B838A830F900FBE0E94C70C07
:1027C0000FB6F8940F92F801858D8F3F09F4158E9E
:1027D000F801868D8F3F09F4168E0F900FBEBE0153
:1027E0006C5F7F4FCE0101960E94190E811133C09C
:1027F0000FB6F8940F92F801928D838D0F900FBE53
:10280000981323C06C817D81C5010E94D10EC8013F
:102810000E948F0E0E94F411811102C00E940B11C0
:1028200081E00FB6F8940F92F801228D938D29174D
:1028300008F0AFCFD28C448D411191CF808191812E
:10284000892B09F42ECF80E035CFC8010E948F0E6E
:102850000E94F411E5CFC8010E948F0E0E94F4116E
:102860009ECF0F931F93CF93DF9300D000D01F9282
:10287000CDB7DEB7009711F40E942C060091AD0190
:102880001091AE0101151105C9F019827B836A838D
:102890009D838C830E94AF0C50E040E0BE016F5FCF
:1028A0007F4FC8010E9427130F900F900F900F9039
:1028B0000F90DF91CF911F910F91089580E0F4CF99
:1028C000EF92FF920F931F93CF93DF93E091A201BA
:1028D000F091A3018081811113C08091A00190919A
:1028E000A1019093A3018093A201F093A101E09331
:1028F000A001DF91CF911F910F91FF90EF9008956C
:102900000580F681E02D00811181C681D7817E018D
:1029100082E0E80EF11CC7010E94F80CE889F989F1
:10292000CE0109958A8982FFD1CF8C859D85800F44
:10293000911F0817190760F49B838A83D987C8877A
:10294000B7018091A2019091A3010E941C0DBECFFE
:10295000B801CE010E9431148111B8CF0E942C061B
:10296000CF93DF93009751F0EC010E94C70CCE018A
:102970000E94C219DF91CF910C94F411DF91CF9195
:102980000895AF92BF92CF92DF92FF920F931F9361
:10299000CF93DF9300D000D01F92CDB7DEB78C016C
:1029A0006B015D834C83892B11F40E942C060E94DD
:1029B000AF0C811104C08C819D81892BB1F780E01F
:1029C000580191E1A90EB11C44C02C813D81232BFB
:1029D00021F40F900FBE80E06DC0811109C080917D
:1029E000E50189838091E3019091E4019B838A83CF
:1029F0000F900FBE0E94C70C0FB6F8940F92F8010B
:102A0000858D8F3F09F4158EF801868D8F3F09F46F
:102A1000168E0F900FBEBE016C5F7F4FCE010196E8
:102A20000E94190E81115BC0C8010E94CD0C882341
:102A300009F44FC06C817D81C5010E94D10EC8018F
:102A40000E948F0E0E94F411811102C00E940B118E
:102A500081E00FB6F8940F92F801F28CFF2009F490
:102A6000B4CF448D4423B1F050E086819781840F28
:102A7000951F97838683248135818217930720F0E1
:102A80008081918197838683F80166817781C60171
:102A90000E948D1DFA94F801F28E8085882339F00A
:102AA000C80108960E944C0E81110E940B110F90D4
:102AB0000FBE81E00F900F900F900F900F90DF915D
:102AC000CF911F910F91FF90DF90CF90BF90AF906B
:102AD0000895C8010E948F0E0E94F411B9CFC80159
:102AE0000E948F0E0E94F411C8010E94CD0C882311
:102AF00009F4AECF70CFCF93DF9300D000D01F92F8
:102B0000CDB7DEB7E091A201F091A301F08010E013
:102B100000E0FF2029F00580F681E02D0081118181
:102B20000E94C70C0E94BD0C6C0180919E01909187
:102B30009F01C816D90608F04BC00E946014D092BD
:102B40009F01C0929E010E94F41150E040E0BE013E
:102B50006F5F7F4F8091AD019091AE010E94C114D3
:102B6000882381F2898187FDF0CF0C811D81D801F6
:102B70001A968D919C91892B21F0C80102960E9492
:102B8000F80C0E94BD0C7C0180919E0190919F01E8
:102B9000E816F90610F40E946014F0929F01E0928A
:102BA0009E01E981EA3088F60E2E000CFF0BE252FE
:102BB000FA4ED80152968C910C94CA1C6616661671
:102BC0006616A5168C169F1666166616A5168C1622
:102BD000D0929F01C0929E01FF20B1F1C016D10694
:102BE000D8F10E94F411E091A201F091A3010580B7
:102BF000F681E02DE680F780C70102960E94F80C6E
:102C0000D70152968C91529782FF14C01C966D91F9
:102C10007C91600F711F9801A601C7010E94520D9F
:102C2000882359F0B801C7010E943114811105C0F1
:102C30000E942C068E7FF701828BD7015096ED9172
:102C4000FC91C701099581CFE091A001F091A1010C
:102C50008081BB24B3948111B12CE090AD01F09040
:102C6000AE010FB6F8940F92F701858D8F3F09F4EE
:102C7000158ED7015E968C915E978F3F11F45E960C
:102C80001C920F900FBEF701828D811115C0C701F4
:102C9000419671F260916E0170916F01645F7F4F98
:102CA0000E94D80CC8018C199D09BB2011F08FEF30
:102CB0009FEF6B2D0E947C0DC7010E948F0E0E941A
:102CC000F411811142CF0E940B113FCF8160F801B6
:102CD000828B2A813B8164857585620F731FA701F2
:102CE000C8010E94520D882309F42FCFD8015096B5
:102CF000ED91FC91C8010995F801828982FF25CFE9
:102D00006A817B8184859585680F791FC8010E943F
:102D1000311481111ACF8CCF8160F801828B6A81C6
:102D20007B81758764876115710509F481CF6E0D0C
:102D30007F1D9701A701C8010E94520D06CF81FD9A
:102D400004C0C8010E94B01400CF8E7FD8015296F3
:102D50008C93FBCECF93DF93EC010E94C70CCE0186
:102D60000E942619EC010E94F411209771F40E9430
:102D7000BD032FEF80E792E0215080409040E1F7C3
:102D800000C000000E94BB03F4CFCE01DF91CF91C1
:102D900008957F928F929F92AF92BF92CF92DF92CF
:102DA000EF92FF920F931F93CF93DF93982EA92E4C
:102DB000762E872E7A01B22ECA010E94AA166C01C5
:102DC000892B09F4D0C088E290E00E94AA16EC0199
:102DD000892B09F4C5C0D88ECF8AA70165EA70E0B7
:102DE000C6010E94961D21E0E21AF108EF89F88DD4
:102DF000EE0DFF1D672D782DCE0149969B01285FB2
:102E00003F4FDB014D91BD01DC014D93CD01AB0185
:102E100041505109DA014C91442319F062177307AC
:102E200081F718A2BE8AB9A21AA21B861A861D8A29
:102E30001C8AD987C88784E090E08B1991099D8707
:102E40008C87DB8BCA8B1BA21CA21DA21EA21FA2F9
:102E50009082DF011197AC9211971C92119780E834
:102E60008C9311971C9257971C9211971C92B397B1
:102E7000F983E8830115110519F0F801D183C083A6
:102E80000FB6F8940F928091E2018F5F8093E20178
:102E900080916E0190916F01892B09F073C0D093DE
:102EA0006F01C0936E018091E201813081F586EE61
:102EB00091E00E94D70D8FEE91E00E94D70D88EF30
:102EC00091E00E94D70D81E092E00E94D70D87ED3E
:102ED00091E00E94D70D8EEC91E00E94D70D85EC19
:102EE00091E00E94D70D8CEB91E00E94D70D83EB0F
:102EF00091E00E94D70D87ED91E09093B20180930D
:102F0000B1018EEC91E09093B0018093AF0180917C
:102F1000E0018F5F8093E0018E8990910A029817FB
:102F200010F480930A02F9E08F9FC0011124BE01C2
:102F30006E5F7F4F8A519E4F0E94D80C0F900FBE3C
:102F40008091E101882351F0E0916E01F0916F01D1
:102F500096898E89981710F40E940B1181E004C0A5
:102F6000C6010E94B0148FEFDF91CF911F910F9196
:102F7000FF90EF90DF90CF90BF90AF909F908F9099
:102F80007F9008958091E1018111C1CFE0916E01A0
:102F9000F0916F019E898689981708F4B8CFD09375
:102FA0006F01C0936E01B3CF0F931F93CF93DF9345
:102FB00005E911E020E040EC50E064E271E08CE5CE
:102FC00096E00E94C916813009F094C00FB6F894BB
:102FD0000F928091AD019091AE01892B49F58AE85D
:102FE00091E00E94D70D81E891E00E94D70D8AE818
:102FF00091E09093A3018093A20181E891E09093E6
:10300000A1018093A00181E590E00E94AA16EC0145
:10301000009751F04F96998388838AE08B8F85E0E3
:103020008C8FCE010E94E50DD093AE01C093AD010F
:103030000F900FBE8091AD019091AE01892B69F088
:1030400003E911E023E045E550E069E271E08BE738
:1030500095E10E94C916811102C00E942C068130A0
:1030600009F048C0F8942FEF3FEF30939D01209373
:103070009C018093E1011092E4011092E301A89574
:1030800088E190EC0FB6F894A895809360000FBE8D
:1030900090936000A0916E01B0916F01CD91CDBF72
:1030A000DD91DEBFFF91EF91DF91CF91BF91AF91A5
:1030B0009F918F917F916F915F914F913F912F9150
:1030C0001F910F91FF90EF90DF90CF90BF90AF9046
:1030D0009F908F907F906F905F904F903F902F9038
:1030E0001F900F900FBE0F900895DF91CF911F9109
:1030F0000F9108958F3FC9F7B0CF0E94E60E189543
:10310000EBE0F2E01382128288EE93E0A0E0B0E000
:1031100084839583A683B7838AE091E0918380833B
:1031200085EC90E09587848784EC90E0978786878C
:1031300080EC90E0918B808B81EC90E0938B828B84
:1031400082EC90E0958B848B86EC90E0978B868B5D
:10315000118E128E138E148EE8EAF2E01382128220
:103160008CE191E0918380838CE084838FEF858371
:103170008BE0868385E0878384E0808783E0818796
:1031800082E082871386148615861686178681E06C
:103190000C94C804789484B5826084BD84B5816041
:1031A00084BD85B5826085BD85B5816085BD809112
:1031B0006E00816080936E0010928100809181008A
:1031C0008260809381008091810081608093810082
:1031D000809180008160809380008091B100846044
:1031E0008093B1008091B00081608093B0008091A5
:1031F0007A00846080937A0080917A008260809364
:103200007A0080917A00816080937A0080917A00C0
:10321000806880937A001092C1002091040130915F
:1032200005018FEF98E0821B930B9093010180932F
:1032300000010E94A50A0E94D4170E94A50AC0E0BE
:10324000D0E02097F1F30E941802FBCF0F931F9359
:10325000CF93DF938230910510F482E090E0E0910B
:10326000C202F091C30230E020E0B0E0A0E030976D
:1032700099F42115310509F44AC0281B390B243073
:103280003105D8F58A819B816115710589F1FB01B2
:1032900093838283FE0111C0408151810281138199
:1032A00048175907E0F04817590799F4109761F04B
:1032B00012960C93129713961C933296CF01DF91BE
:1032C000CF911F910F9108950093C2021093C302F2
:1032D000F4CF2115310551F04217530738F0A901F9
:1032E000DB019A01BD01DF01F801C1CFEF01F9CF88
:1032F0009093C3028093C202CDCFFE01E20FF31F71
:10330000819391932250310939832883D7CF20911B
:10331000C0023091C102232B41F42091020130916F
:1033200003013093C1022093C0022091000130912B
:1033300001012115310541F42DB73EB7409104013B
:1033400050910501241B350BE091C002F091C102A0
:10335000E217F307A0F42E1B3F0B2817390778F06C
:10336000AC014E5F5F4F2417350748F04E0F5F1FCB
:103370005093C1024093C002819391939FCFF0E09C
:10338000E0E09CCFCF93DF930097E9F0FC01329708
:1033900013821282A091C202B091C302ED0130E00B
:1033A00020E01097A1F420813181820F931F20919A
:1033B000C0023091C1022817390709F061C0F093AB
:1033C000C102E093C002DF91CF910895EA01CE17C8
:1033D000DF07E8F54A815B819E0141155105B1F790
:1033E000E901FB83EA8349915991C40FD51FEC177A
:1033F000FD0761F4808191810296840F951FE90198
:1034000099838883828193819B838A83F0E0E0E0C3
:1034100012968D919C9113970097B9F52D913C913F
:103420001197CD010296820F931F2091C002309117
:10343000C1022817390739F6309751F51092C302A7
:103440001092C202B093C102A093C002BCCFD3833A
:10345000C28340815181840F951FC817D90761F439
:103460004E5F5F4F88819981480F591F5183408378
:103470008A819B81938382832115310509F0B0CF26
:10348000F093C302E093C2029ECFFD01DC01C0CFE6
:1034900013821282D7CFFB01DC014150504048F02B
:1034A00005900D920020C9F701C01D924150504077
:1034B000E0F708950E949C1A08F481E00895E894CA
:1034C00009C097FB3EF490958095709561957F4F6C
:1034D0008F4F9F4F9923A9F0F92F96E9BB2793951A
:1034E000F695879577956795B795F111F8CFFAF42A
:1034F000BB0F11F460FF1BC06F5F7F4F8F4F9F4F5B
:1035000016C0882311F096E911C0772321F09EE8B8
:10351000872F762F05C0662371F096E8862F70E01E
:1035200060E02AF09A95660F771F881FDAF7880FF8
:103530009695879597F90895990F0008550FAA0B4E
:10354000E0E8FEEF16161706E807F907C0F01216B6
:103550001306E407F50798F0621B730B840B950BB9
:1035600039F40A2661F0232B242B252B21F408950E
:103570000A2609F4A140A6958FEF811D811D0895AB
:103580000E94D31A0C94441B0E94361B38F00E94F0
:103590003D1B20F0952311F00C942D1B0C94331B34
:1035A00011240C94781B0E94551B70F3959FC1F356
:1035B000950F50E0551F629FF001729FBB27F00DE1
:1035C000B11D639FAA27F00DB11DAA1F649F662736
:1035D000B00DA11D661F829F2227B00DA11D621F85
:1035E000739FB00DA11D621F839FA00D611D221F3F
:1035F000749F3327A00D611D231F849F600D211D23
:10360000822F762F6A2F11249F5750409AF0F1F0A5
:1036100088234AF0EE0FFF1FBB1F661F771F881F0E
:1036200091505040A9F79E3F510580F00C942D1BFE
:103630000C94781B5F3FE4F3983ED4F3869577951E
:103640006795B795F795E7959F5FC1F7FE2B880FB4
:10365000911D9695879597F9089597F99F6780E84A
:1036600070E060E008959FEF80EC089500240A94D4
:103670001616170618060906089500240A9412164D
:103680001306140605060895092E0394000C11F480
:10369000882352F0BB0F40F4BF2B11F460FF04C02D
:1036A0006F5F7F4F8F4F9F4F089557FD9058440F86
:1036B000551F59F05F3F71F04795880F97FB991F91
:1036C00061F09F3F79F0879508951216130614064E
:1036D000551FF2CF4695F1DF08C0161617061806DB
:1036E000991FF1CF86957105610508940895E894B6
:1036F000BB2766277727CB0197F908952F923F9232
:103700004F925F926F927F928F929F92AF92BF92F1
:10371000CF92DF92EF92FF920F931F93CF93DF939D
:10372000CDB7DEB7CA1BDB0B0FB6F894DEBF0FBEFA
:10373000CDBF09942A88398848885F846E847D8447
:103740008C849B84AA84B984C884DF80EE80FD8049
:103750000C811B81AA81B981CE0FD11D0FB6F894BF
:10376000DEBF0FBECDBFED0108955058BB27AA277D
:103770000E94CD1B0C94441B0E94361B38F00E9403
:103780003D1B20F039F49F3F19F426F40C94331BB1
:103790000EF4E095E7FB0C942D1BE92F0E94551BBE
:1037A00058F3BA17620773078407950720F079F476
:1037B000A6F50C94771B0EF4E0950B2EBA2FA02DD6
:1037C0000B01B90190010C01CA01A0011124FF27CE
:1037D000591B99F0593F50F4503E68F11A16F040C9
:1037E000A22F232F342F4427585FF3CF46953795C8
:1037F0002795A795F0405395C9F77EF41F16BA0B8D
:10380000620B730B840BBAF09150A1F0FF0FBB1F3A
:10381000661F771F881FC2F70EC0BA0F621F731F83
:10382000841F48F4879577956795B795F7959E3FE0
:1038300008F0B0CF9395880F08F09927EE0F979571
:10384000879508950E94361C0C94441B0E943D1BD2
:1038500058F00E94361B40F029F45F3F29F00C9489
:103860002D1B51110C94781B0C94331B0E94551B7B
:1038700068F39923B1F3552391F3951B550BBB279F
:10388000AA2762177307840738F09F5F5F4F220FE4
:10389000331F441FAA1FA9F335D00E2E3AF0E0E8DB
:1038A00032D091505040E695001CCAF72BD0FE2F25
:1038B00029D0660F771F881FBB1F261737074807B9
:1038C000AB07B0E809F0BB0B802DBF01FF27935871
:1038D0005F4F3AF09E3F510578F00C942D1B0C94ED
:1038E000781B5F3FE4F3983ED4F386957795679510
:1038F000B795F7959F5FC9F7880F911D96958795A6
:1039000097F90895E1E0660F771F881FBB1F6217C4
:1039100073078407BA0720F0621B730B840BBA0B82
:10392000EE1F88F7E09508950E949B1C6894B111E2
:103930000C94781B08950E945D1B88F09F5798F0A7
:10394000B92F9927B751B0F0E1F0660F771F881FA4
:10395000991F1AF0BA95C9F714C0B13091F00E94BE
:10396000771BB1E008950C94771B672F782F882779
:10397000B85F39F0B93FCCF3869577956795B395E5
:10398000D9F73EF490958095709561957F4F8F4F54
:103990009F4F0895EE0FFF1F0590F491E02D0994BD
:1039A000B0E0A0E0E6EDFCE10C94801B8C010097F8
:1039B00051F4CB010E9426198C01C801CDB7DEB7A6
:1039C000E0E10C949C1BFC01E60FF71F9C012250C8
:1039D0003109E217F30708F49DC0D901CD91DC91BC
:1039E0001197C617D70798F0C530D10530F3CE012F
:1039F00004978617970708F3C61BD70B2297C19326
:103A0000D1936D937C93CF010E94C219D6CF5B01F5
:103A1000AC1ABD0A4C018C0E9D1EA091C202B09141
:103A2000C302512C412CF12CE12C109731F58091DF
:103A3000C0029091C1028815990509F05CC0461634
:103A4000570608F058C0809100019091010100973D
:103A500041F48DB79EB74091040150910501841B3C
:103A6000950BE817F90708F055C0F093C102E093F1
:103A7000C002F90171836083A0CF8D919C91119751
:103A800012966C90129713967C901397A815B9050F
:103A900059F56C0142E0C40ED11CCA14DB0420F1BC
:103AA000AC014A195B09DA011296159780F062821F
:103AB000738251834083D9016D937C93E114F104A7
:103AC00071F0D7011396FC93EE93129776CF22965E
:103AD0008C0F9D1FF90191838083F301EFCFF09349
:103AE000C302E093C20269CF4816590608F42C01BC
:103AF0007D01D3019ACFCB010E9426197C0100974A
:103B000049F0AE01B8010E948D1DC8010E94C21982
:103B1000870153CF10E000E050CFFB01DC0102C071
:103B200001900D9241505040D8F70895DC0101C03A
:103B30006D9341505040E0F70895FB01DC01019086
:103B40000D920020E1F70895AEE0B0E0EAEAFDE171
:103B50000C948C1B8C01FA0186E08C831A830983F8
:103B600077FF02C060E070E8615071097E836D8369
:103B7000A901BF01CE0101960E94D01D4D815E8139
:103B800057FD0AC02F813885421753070CF49A015C
:103B9000020F131FF80110822E96E4E00C94A81B6C
:103BA000ABE0B0E0E6EDFDE10C947E1B7C013B0157
:103BB0008A01FC0117821682838181FFC8C1CE0170
:103BC00001965C01F7019381F30193FD859193FFC9
:103BD00081913F01882309F453C1853239F493FD63
:103BE000859193FF81913F01853229F4B70190E0DF
:103BF0000E94C01FE7CF912C212C312CFFE1F3153F
:103C000038F08B3211F190F4803209F1833229F1CE
:103C100037FC3CC020ED280F2A3050F536FE20C07E
:103C20008AE0989E200D1124922E06C08D3291F0CC
:103C3000803371F7689430F8F30193FD859193FF19
:103C400081913F018111DACF21C0689431F86894E5
:103C500032F8F2CF689433F8EFCF689434F8ECCFB1
:103C6000EAE02E9E200D1124222E689435F8E4CF30
:103C70008E3229F436FC04C1689436F8DDCF8C36D8
:103C800019F4689437F8D8CF8836B1F2982F9F7D11
:103C900095549330E0F08336A1F18337C1F1833539
:103CA00009F063C02801F2E04F0E511CF801C080FA
:103CB000D180692D70E036FC02C06FEF7FEFC60146
:103CC0000E94AA1F4C01689437F882010AC00C5F59
:103CD0001F4FFFE3F98388248394912C6501E894B6
:103CE00037F833FE2DC0522C8114910471F5552004
:103CF00009F468CFB70180E290E00E94C01F5A9497
:103D0000F6CFF801808189830E5F1F4FE4CF280131
:103D1000F2E04F0E511CF801C080D180692D70E097
:103D200036FC02C06FEF7FEFC6010E94B51F4C0149
:103D30008201D5CFB70180E290E00E94C01F2A9493
:103D40002814190409F0B0F7CECFF60137FC85919D
:103D500037FE81916F01B70190E00E94C01F5110A2
:103D60005A94F1E08F1A9108BFCF843619F0893642
:103D700009F077C0F80137FE6BC0608171818281E4
:103D800093810C5F1F4FF32DFF763F2E97FF09C0E5
:103D900090958095709561957F4F8F4F9F4F689458
:103DA00037F82AE030E0A5010E94F01FC82ECA189B
:103DB0008C2C432C36FE0CC0E89440F8C91440F417
:103DC00034FE05C032FC03C0F32DFE7E4F2E892C3D
:103DD00044FE95C0FE01EC0DF11D8081803309F099
:103DE00087C0242D297E422E842D8870582E43FCB6
:103DF00095C040FE8FC09C2C821418F42C0C922C81
:103E0000981844FE91C0B70180E390E00E94C01F63
:103E100042FE09C088E790E041FE02C088E590E0DC
:103E2000B7010E94C01FC91408F48AC0CA94D12CDB
:103E30009FEFC91AD90ACA0CDB1CF60182916F01E7
:103E4000B70190E00E94C01FAC14BD04B1F74FCF82
:103E500060817181072E000C880B990B0E5F1F4F3C
:103E600092CFD32CE894D4F82AE030E0853739F1AA
:103E7000232D297FD22E8F3601F148F48835A9F001
:103E8000F701868197812B96E2E10C949A1B80378B
:103E900049F08837A9F7D4FE02C06894D2F820E12F
:103EA00030E00DC06894D4F8F6CF34FE03C0822F02
:103EB0008660D82E20E132E002C028E030E0F80130
:103EC000D7FE0FC060817181828193810C5F1F4F8B
:103ED000A5010E94F01FC82ECA183D2CE89437F89F
:103EE00067CF6081718190E080E00E5F1F4FF0CF5F
:103EF00042FC02C0839478CF8394839475CF842D41
:103F0000867809F471CFF6CFB70180E290E00E9485
:103F1000C01F83948214C0F3512C73CF522C5818B5
:103F2000821408F46ECFF8CF842D867809F47BCF05
:103F30008BE241FE80E247FC8DE2B70190E071CF59
:103F4000B70180E390E00E94C01F9A946CCF8FEF7E
:103F50009FEF99CFFC010590615070400110D8F798
:103F6000809590958E0F9F1F0895FC0161507040C1
:103F700001900110D8F7809590958E0F9F1F08959E
:103F80000F931F93CF93DF93182F092FEB018B8192
:103F900081FD09C01FEF0FEF812F902FDF91CF918F
:103FA0001F910F91089582FF14C02E813F818C8153
:103FB0009D81281739073CF4E881F981CF010196EA
:103FC0009983888310838E819F8101969F838E833E
:103FD000E3CFE885F985812F0995892BA1F3DACF05
:103FE000FA01AA27283051F1203181F1E8946F932A
:103FF0006E7F6E5F7F4F8F4F9F4FAF4FB1E03ED0D0
:10400000B4E03CD0670F781F891F9A1FA11D680F6D
:10401000791F8A1F911DA11D6A0F711D811D911DA0
:10402000A11D20D009F468943F912AE0269F112415
:104030003019305D3193DEF6CF010895462F477079
:10404000405D4193B3E00FD0C9F7F6CF462F4F70D4
:10405000405D4A3318F0495D31FD4052419302D032
:10406000A9F7EACFB4E0A6959795879577956795D8
:10407000BA95C9F700976105710508959B01AC01D8
:104080000A2E06945795479537952795BA95C9F7FF
:10409000620F731F841F951FA01D0895F894FFCF12
:1040A0000000C4028000000000004702A401D1010A
:1040B00094020202E001F401000000008305A40163
:1040C000B803B70349444C4500546D7220537663DE
:1040D000002D4652454552544F53204A414D5552AA
:1040E0002D004C4344205441534B004C4344004466
:1040F00048543232205441534B00646874323200C9
:0E4100004C4452205441534B004C445200009A
:107E0000112484B714BE81FFF0D085E080938100F7
:107E100082E08093C00088E18093C10086E0809377
:107E2000C20080E18093C4008EE0C9D0259A86E02C
:107E300020E33CEF91E0309385002093840096BBD3
:107E4000B09BFECF1D9AA8958150A9F7CC24DD24C4
:107E500088248394B5E0AB2EA1E19A2EF3E0BF2EE7
:107E6000A2D0813461F49FD0082FAFD0023811F036
:107E7000013811F484E001C083E08DD089C08234E0
:107E800011F484E103C0853419F485E0A6D080C0E4
:107E9000853579F488D0E82EFF2485D0082F10E0AE
:107EA000102F00270E291F29000F111F8ED06801E7
:107EB0006FC0863521F484E090D080E0DECF843638
:107EC00009F040C070D06FD0082F6DD080E0C81688
:107ED00080E7D80618F4F601B7BEE895C0E0D1E017
:107EE00062D089930C17E1F7F0E0CF16F0E7DF06D8
:107EF00018F0F601B7BEE89568D007B600FCFDCFD4
:107F0000A601A0E0B1E02C9130E011968C91119780
:107F100090E0982F8827822B932B1296FA010C0160
:107F200087BEE89511244E5F5F4FF1E0A038BF0790
:107F300051F7F601A7BEE89507B600FCFDCF97BE46
:107F4000E89526C08437B1F42ED02DD0F82E2BD052
:107F50003CD0F601EF2C8F010F5F1F4F84911BD097
:107F6000EA94F801C1F70894C11CD11CFA94CF0C13
:107F7000D11C0EC0853739F428D08EE10CD085E9AC
:107F80000AD08FE07ACF813511F488E018D01DD067
:107F900080E101D065CF982F8091C00085FFFCCF94
:107FA0009093C60008958091C00087FFFCCF809118
:107FB000C00084FD01C0A8958091C6000895E0E648
:107FC000F0E098E1908380830895EDDF803219F02E
:107FD00088E0F5DFFFCF84E1DECF1F93182FE3DFCA
:107FE0001150E9F7F2DF1F91089580E0E8DFEE27F6
:047FF000FF270994CA
:027FFE00040479
:0400000300007E007B
:00000001FF
